{
  "_format": "hh-sol-artifact-1",
  "contractName": "DeploymentLog",
  "sourceName": "contracts/DeploymentLog.sol",
  "abi": [
    {
      "anonymous": false,
      "inputs": [
        {
          "indexed": false,
          "internalType": "string",
          "name": "commitHash",
          "type": "string"
        },
        {
          "indexed": false,
          "internalType": "string",
          "name": "imageId",
          "type": "string"
        },
        {
          "indexed": false,
          "internalType": "string",
          "name": "environment",
          "type": "string"
        },
        {
          "indexed": false,
          "internalType": "uint256",
          "name": "timestamp",
          "type": "uint256"
        }
      ],
      "name": "DeploymentLogged",
      "type": "event"
    },
    {
      "inputs": [
        {
          "internalType": "uint256",
          "name": "",
          "type": "uint256"
        }
      ],
      "name": "deployments",
      "outputs": [
        {
          "internalType": "string",
          "name": "commitHash",
          "type": "string"
        },
        {
          "internalType": "string",
          "name": "imageId",
          "type": "string"
        },
        {
          "internalType": "string",
          "name": "environment",
          "type": "string"
        },
        {
          "internalType": "uint256",
          "name": "timestamp",
          "type": "uint256"
        }
      ],
      "stateMutability": "view",
      "type": "function"
    },
    {
      "inputs": [],
      "name": "getAllDeployments",
      "outputs": [
        {
          "components": [
            {
              "internalType": "string",
              "name": "commitHash",
              "type": "string"
            },
            {
              "internalType": "string",
              "name": "imageId",
              "type": "string"
            },
            {
              "internalType": "string",
              "name": "environment",
              "type": "string"
            },
            {
              "internalType": "uint256",
              "name": "timestamp",
              "type": "uint256"
            }
          ],
          "internalType": "struct DeploymentLog.Deployment[]",
          "name": "",
          "type": "tuple[]"
        }
      ],
      "stateMutability": "view",
      "type": "function"
    },
    {
      "inputs": [
        {
          "internalType": "string",
          "name": "commitHash",
          "type": "string"
        },
        {
          "internalType": "string",
          "name": "imageId",
          "type": "string"
        },
        {
          "internalType": "string",
          "name": "environment",
          "type": "string"
        }
      ],
      "name": "logDeployment",
      "outputs": [],
      "stateMutability": "nonpayable",
      "type": "function"
    }
  ],
  "bytecode": "0x608060405234801561001057600080fd5b50610bde806100206000396000f3fe608060405234801561001057600080fd5b50600436106100415760003560e01c806306609bbe146100465780638eec00b814610079578063c02755a014610097575b600080fd5b610060600480360381019061005b9190610770565b6100b3565b6040516100709493929190610949565b60405180910390f35b61008161028b565b60405161008e9190610927565b60405180910390f35b6100b160048036038101906100ac91906106c9565b6104aa565b005b600081815481106100c357600080fd5b90600052602060002090600402016000915090508060000180546100e690610aab565b80601f016020809104026020016040519081016040528092919081815260200182805461011290610aab565b801561015f5780601f106101345761010080835404028352916020019161015f565b820191906000526020600020905b81548152906001019060200180831161014257829003601f168201915b50505050509080600101805461017490610aab565b80601f01602080910402602001604051908101604052809291908181526020018280546101a090610aab565b80156101ed5780601f106101c2576101008083540402835291602001916101ed565b820191906000526020600020905b8154815290600101906020018083116101d057829003601f168201915b50505050509080600201805461020290610aab565b80601f016020809104026020016040519081016040528092919081815260200182805461022e90610aab565b801561027b5780601f106102505761010080835404028352916020019161027b565b820191906000526020600020905b81548152906001019060200180831161025e57829003601f168201915b5050505050908060030154905084565b60606000805480602002602001604051908101604052809291908181526020016000905b828210156104a157838290600052602060002090600402016040518060800160405290816000820180546102e290610aab565b80601f016020809104026020016040519081016040528092919081815260200182805461030e90610aab565b801561035b5780601f106103305761010080835404028352916020019161035b565b820191906000526020600020905b81548152906001019060200180831161033e57829003601f168201915b5050505050815260200160018201805461037490610aab565b80601f01602080910402602001604051908101604052809291908181526020018280546103a090610aab565b80156103ed5780601f106103c2576101008083540402835291602001916103ed565b820191906000526020600020905b8154815290600101906020018083116103d057829003601f168201915b5050505050815260200160028201805461040690610aab565b80601f016020809104026020016040519081016040528092919081815260200182805461043290610aab565b801561047f5780601f106104545761010080835404028352916020019161047f565b820191906000526020600020905b81548152906001019060200180831161046257829003601f168201915b50505050508152602001600382015481525050815260200190600101906102af565b50505050905090565b60006040518060800160405280858152602001848152602001838152602001428152509050600081908060018154018082558091505060019003906000526020600020906004020160009091909190915060008201518160000190805190602001906105179291906105a1565b5060208201518160010190805190602001906105349291906105a1565b5060408201518160020190805190602001906105519291906105a1565b506060820151816003015550507f2adc582588c1809a5e998e3c1258ec1c7cef5954b2a7c60d6c7da6e06ff11147848484426040516105939493929190610949565b60405180910390a150505050565b8280546105ad90610aab565b90600052602060002090601f0160209004810192826105cf5760008555610616565b82601f106105e857805160ff1916838001178555610616565b82800160010185558215610616579182015b828111156106155782518255916020019190600101906105fa565b5b5090506106239190610627565b5090565b5b80821115610640576000816000905550600101610628565b5090565b6000610657610652846109c8565b6109a3565b90508281526020810184848401111561067357610672610b71565b5b61067e848285610a69565b509392505050565b600082601f83011261069b5761069a610b6c565b5b81356106ab848260208601610644565b91505092915050565b6000813590506106c381610b91565b92915050565b6000806000606084860312156106e2576106e1610b7b565b5b600084013567ffffffffffffffff811115610700576106ff610b76565b5b61070c86828701610686565b935050602084013567ffffffffffffffff81111561072d5761072c610b76565b5b61073986828701610686565b925050604084013567ffffffffffffffff81111561075a57610759610b76565b5b61076686828701610686565b9150509250925092565b60006020828403121561078657610785610b7b565b5b6000610794848285016106b4565b91505092915050565b60006107a98383610898565b905092915050565b60006107bc82610a09565b6107c68185610a2c565b9350836020820285016107d8856109f9565b8060005b8581101561081457848403895281516107f5858261079d565b945061080083610a1f565b925060208a019950506001810190506107dc565b50829750879550505050505092915050565b600061083182610a14565b61083b8185610a3d565b935061084b818560208601610a78565b61085481610b80565b840191505092915050565b600061086a82610a14565b6108748185610a4e565b9350610884818560208601610a78565b61088d81610b80565b840191505092915050565b600060808301600083015184820360008601526108b58282610826565b915050602083015184820360208601526108cf8282610826565b915050604083015184820360408601526108e98282610826565b91505060608301516108fe6060860182610909565b508091505092915050565b61091281610a5f565b82525050565b61092181610a5f565b82525050565b6000602082019050818103600083015261094181846107b1565b905092915050565b60006080820190508181036000830152610963818761085f565b90508181036020830152610977818661085f565b9050818103604083015261098b818561085f565b905061099a6060830184610918565b95945050505050565b60006109ad6109be565b90506109b98282610add565b919050565b6000604051905090565b600067ffffffffffffffff8211156109e3576109e2610b3d565b5b6109ec82610b80565b9050602081019050919050565b6000819050602082019050919050565b600081519050919050565b600081519050919050565b6000602082019050919050565b600082825260208201905092915050565b600082825260208201905092915050565b600082825260208201905092915050565b6000819050919050565b82818337600083830152505050565b60005b83811015610a96578082015181840152602081019050610a7b565b83811115610aa5576000848401525b50505050565b60006002820490506001821680610ac357607f821691505b60208210811415610ad757610ad6610b0e565b5b50919050565b610ae682610b80565b810181811067ffffffffffffffff82111715610b0557610b04610b3d565b5b80604052505050565b7f4e487b7100000000000000000000000000000000000000000000000000000000600052602260045260246000fd5b7f4e487b7100000000000000000000000000000000000000000000000000000000600052604160045260246000fd5b600080fd5b600080fd5b600080fd5b600080fd5b6000601f19601f8301169050919050565b610b9a81610a5f565b8114610ba557600080fd5b5056fea26469706673582212204d73d01f7c0c36ac656c5ba48a9a0b7430909ffd3397daa05d464d67afa5f90a64736f6c63430008060033",
  "linkReferences": {},
  "deployedLinkReferences": {}
}